{
  "_format": "hh-sol-artifact-1",
  "contractName": "TokenizedBallot",
  "sourceName": "contracts/TokenizedBallot.sol",
  "abi": [
    {
      "inputs": [
        {
          "internalType": "bytes32[]",
          "name": "_proposalNames",
          "type": "bytes32[]"
        },
        {
          "internalType": "address",
          "name": "_tokenContract",
          "type": "address"
        },
        {
          "internalType": "uint256",
          "name": "_targetBlockNumber",
          "type": "uint256"
        }
      ],
      "stateMutability": "nonpayable",
      "type": "constructor"
    },
    {
      "inputs": [],
      "name": "getProposalCount",
      "outputs": [
        {
          "internalType": "uint256",
          "name": "count",
          "type": "uint256"
        }
      ],
      "stateMutability": "view",
      "type": "function"
    },
    {
      "inputs": [],
      "name": "getProposals",
      "outputs": [
        {
          "components": [
            {
              "internalType": "bytes32",
              "name": "name",
              "type": "bytes32"
            },
            {
              "internalType": "uint256",
              "name": "voteCount",
              "type": "uint256"
            }
          ],
          "internalType": "struct TokenizedBallot.Proposal[]",
          "name": "",
          "type": "tuple[]"
        }
      ],
      "stateMutability": "view",
      "type": "function"
    },
    {
      "inputs": [
        {
          "internalType": "uint256",
          "name": "",
          "type": "uint256"
        }
      ],
      "name": "proposals",
      "outputs": [
        {
          "internalType": "bytes32",
          "name": "name",
          "type": "bytes32"
        },
        {
          "internalType": "uint256",
          "name": "voteCount",
          "type": "uint256"
        }
      ],
      "stateMutability": "view",
      "type": "function"
    },
    {
      "inputs": [],
      "name": "targetBlockNumber",
      "outputs": [
        {
          "internalType": "uint256",
          "name": "",
          "type": "uint256"
        }
      ],
      "stateMutability": "view",
      "type": "function"
    },
    {
      "inputs": [],
      "name": "tokenContract",
      "outputs": [
        {
          "internalType": "contract IMyToken",
          "name": "",
          "type": "address"
        }
      ],
      "stateMutability": "view",
      "type": "function"
    },
    {
      "inputs": [
        {
          "internalType": "uint256",
          "name": "proposal",
          "type": "uint256"
        },
        {
          "internalType": "uint256",
          "name": "amount",
          "type": "uint256"
        }
      ],
      "name": "vote",
      "outputs": [],
      "stateMutability": "nonpayable",
      "type": "function"
    },
    {
      "inputs": [
        {
          "internalType": "address",
          "name": "voter",
          "type": "address"
        }
      ],
      "name": "votingPower",
      "outputs": [
        {
          "internalType": "uint256",
          "name": "",
          "type": "uint256"
        }
      ],
      "stateMutability": "view",
      "type": "function"
    },
    {
      "inputs": [],
      "name": "winnerName",
      "outputs": [
        {
          "internalType": "bytes32",
          "name": "winnerName_",
          "type": "bytes32"
        }
      ],
      "stateMutability": "view",
      "type": "function"
    },
    {
      "inputs": [],
      "name": "winningProposal",
      "outputs": [
        {
          "internalType": "uint256",
          "name": "winningProposal_",
          "type": "uint256"
        }
      ],
      "stateMutability": "view",
      "type": "function"
    }
  ],
  "bytecode": "0x60806040523480156200001157600080fd5b5060405162001096380380620010968339818101604052810190620000379190620003ca565b816000806101000a81548173ffffffffffffffffffffffffffffffffffffffff021916908373ffffffffffffffffffffffffffffffffffffffff160217905550806002819055504360025410620000c5576040517f08c379a0000000000000000000000000000000000000000000000000000000008152600401620000bc90620004cc565b60405180910390fd5b60005b83518110156200015c5760016040518060400160405280868481518110620000f557620000f4620004ee565b5b602002602001015181526020016000815250908060018154018082558091505060019003906000526020600020906002020160009091909190915060008201518160000155602082015181600101555050808062000153906200054c565b915050620000c8565b5050505062000599565b6000604051905090565b600080fd5b600080fd5b600080fd5b6000601f19601f8301169050919050565b7f4e487b7100000000000000000000000000000000000000000000000000000000600052604160045260246000fd5b620001ca826200017f565b810181811067ffffffffffffffff82111715620001ec57620001eb62000190565b5b80604052505050565b60006200020162000166565b90506200020f8282620001bf565b919050565b600067ffffffffffffffff82111562000232576200023162000190565b5b602082029050602081019050919050565b600080fd5b6000819050919050565b6200025d8162000248565b81146200026957600080fd5b50565b6000815190506200027d8162000252565b92915050565b60006200029a620002948462000214565b620001f5565b90508083825260208201905060208402830185811115620002c057620002bf62000243565b5b835b81811015620002ed5780620002d888826200026c565b845260208401935050602081019050620002c2565b5050509392505050565b600082601f8301126200030f576200030e6200017a565b5b81516200032184826020860162000283565b91505092915050565b600073ffffffffffffffffffffffffffffffffffffffff82169050919050565b600062000357826200032a565b9050919050565b62000369816200034a565b81146200037557600080fd5b50565b60008151905062000389816200035e565b92915050565b6000819050919050565b620003a4816200038f565b8114620003b057600080fd5b50565b600081519050620003c48162000399565b92915050565b600080600060608486031215620003e657620003e562000170565b5b600084015167ffffffffffffffff81111562000407576200040662000175565b5b6200041586828701620002f7565b9350506020620004288682870162000378565b92505060406200043b86828701620003b3565b9150509250925092565b600082825260208201905092915050565b7f54617267657420626c6f636b2073686f756c6420626520696e2074686520706160008201527f7374210000000000000000000000000000000000000000000000000000000000602082015250565b6000620004b460238362000445565b9150620004c18262000456565b604082019050919050565b60006020820190508181036000830152620004e781620004a5565b9050919050565b7f4e487b7100000000000000000000000000000000000000000000000000000000600052603260045260246000fd5b7f4e487b7100000000000000000000000000000000000000000000000000000000600052601160045260246000fd5b600062000559826200038f565b91507fffffffffffffffffffffffffffffffffffffffffffffffffffffffffffffffff82036200058e576200058d6200051d565b5b600182019050919050565b610aed80620005a96000396000f3fe608060405234801561001057600080fd5b50600436106100935760003560e01c806362564c481161006657806362564c4814610123578063b384abef14610141578063c07473f61461015d578063c08cc02d1461018d578063e2ba53f0146101ab57610093565b8063013cf08b146100985780632a8cd29e146100c957806355a373d6146100e7578063609ff1bd14610105575b600080fd5b6100b260048036038101906100ad9190610575565b6101c9565b6040516100c09291906105ca565b60405180910390f35b6100d16101fd565b6040516100de91906105f3565b60405180910390f35b6100ef610203565b6040516100fc919061068d565b60405180910390f35b61010d610227565b60405161011a91906105f3565b60405180910390f35b61012b6102af565b60405161013891906107a4565b60405180910390f35b61015b600480360381019061015691906107c6565b610322565b005b61017760048036038101906101729190610844565b610403565b60405161018491906105f3565b60405180910390f35b6101956104f9565b6040516101a291906105f3565b60405180910390f35b6101b3610506565b6040516101c09190610871565b60405180910390f35b600181815481106101d957600080fd5b90600052602060002090600202016000915090508060000154908060010154905082565b60025481565b60008054906101000a900473ffffffffffffffffffffffffffffffffffffffff1681565b6000806000905060005b6001805490508110156102aa5781600182815481106102535761025261088c565b5b9060005260206000209060020201600101541115610297576001818154811061027f5761027e61088c565b5b90600052602060002090600202016001015491508092505b80806102a2906108ea565b915050610231565b505090565b60606001805480602002602001604051908101604052809291908181526020016000905b82821015610319578382906000526020600020906002020160405180604001604052908160008201548152602001600182015481525050815260200190600101906102d3565b50505050905090565b8061032c33610403565b101561036d576040517f08c379a0000000000000000000000000000000000000000000000000000000008152600401610364906109b5565b60405180910390fd5b80600360003373ffffffffffffffffffffffffffffffffffffffff1673ffffffffffffffffffffffffffffffffffffffff16815260200190815260200160002060008282546103bc91906109d5565b9250508190555080600183815481106103d8576103d761088c565b5b906000526020600020906002020160010160008282546103f891906109d5565b925050819055505050565b60008060008054906101000a900473ffffffffffffffffffffffffffffffffffffffff1673ffffffffffffffffffffffffffffffffffffffff16633a46b1a8846002546040518363ffffffff1660e01b8152600401610463929190610a18565b602060405180830381865afa158015610480573d6000803e3d6000fd5b505050506040513d601f19601f820116820180604052508101906104a49190610a56565b9050600360008473ffffffffffffffffffffffffffffffffffffffff1673ffffffffffffffffffffffffffffffffffffffff16815260200190815260200160002054816104f19190610a83565b915050919050565b6000600180549050905090565b60006001610512610227565b815481106105235761052261088c565b5b906000526020600020906002020160000154905090565b600080fd5b6000819050919050565b6105528161053f565b811461055d57600080fd5b50565b60008135905061056f81610549565b92915050565b60006020828403121561058b5761058a61053a565b5b600061059984828501610560565b91505092915050565b6000819050919050565b6105b5816105a2565b82525050565b6105c48161053f565b82525050565b60006040820190506105df60008301856105ac565b6105ec60208301846105bb565b9392505050565b600060208201905061060860008301846105bb565b92915050565b600073ffffffffffffffffffffffffffffffffffffffff82169050919050565b6000819050919050565b600061065361064e6106498461060e565b61062e565b61060e565b9050919050565b600061066582610638565b9050919050565b60006106778261065a565b9050919050565b6106878161066c565b82525050565b60006020820190506106a2600083018461067e565b92915050565b600081519050919050565b600082825260208201905092915050565b6000819050602082019050919050565b6106dd816105a2565b82525050565b6106ec8161053f565b82525050565b60408201600082015161070860008501826106d4565b50602082015161071b60208501826106e3565b50505050565b600061072d83836106f2565b60408301905092915050565b6000602082019050919050565b6000610751826106a8565b61075b81856106b3565b9350610766836106c4565b8060005b8381101561079757815161077e8882610721565b975061078983610739565b92505060018101905061076a565b5085935050505092915050565b600060208201905081810360008301526107be8184610746565b905092915050565b600080604083850312156107dd576107dc61053a565b5b60006107eb85828601610560565b92505060206107fc85828601610560565b9150509250929050565b60006108118261060e565b9050919050565b61082181610806565b811461082c57600080fd5b50565b60008135905061083e81610818565b92915050565b60006020828403121561085a5761085961053a565b5b60006108688482850161082f565b91505092915050565b600060208201905061088660008301846105ac565b92915050565b7f4e487b7100000000000000000000000000000000000000000000000000000000600052603260045260246000fd5b7f4e487b7100000000000000000000000000000000000000000000000000000000600052601160045260246000fd5b60006108f58261053f565b91507fffffffffffffffffffffffffffffffffffffffffffffffffffffffffffffffff8203610927576109266108bb565b5b600182019050919050565b600082825260208201905092915050565b7f546f6b656e697a656442616c6c6f743a20747279696e6720746f20766f74652060008201527f6d6f7265207468616e20616c6c6f776564000000000000000000000000000000602082015250565b600061099f603183610932565b91506109aa82610943565b604082019050919050565b600060208201905081810360008301526109ce81610992565b9050919050565b60006109e08261053f565b91506109eb8361053f565b9250828201905080821115610a0357610a026108bb565b5b92915050565b610a1281610806565b82525050565b6000604082019050610a2d6000830185610a09565b610a3a60208301846105bb565b9392505050565b600081519050610a5081610549565b92915050565b600060208284031215610a6c57610a6b61053a565b5b6000610a7a84828501610a41565b91505092915050565b6000610a8e8261053f565b9150610a998361053f565b9250828203905081811115610ab157610ab06108bb565b5b9291505056fea26469706673582212201bef4ca259b08c70ceb17113eefac89dec1be7a2b875bd9add2982c863adfcf464736f6c63430008130033",
  "linkReferences": {},
  "deployedLinkReferences": {}
}