{
  "_format": "hh-sol-artifact-1",
  "contractName": "TokenizedBallot",
  "sourceName": "contracts/TokenizedBallot.sol",
  "abi": [
    {
      "inputs": [
        {
          "internalType": "bytes32[]",
          "name": "_proposalNames",
          "type": "bytes32[]"
        },
        {
          "internalType": "address",
          "name": "_tokenContract",
          "type": "address"
        },
        {
          "internalType": "uint256",
          "name": "_targetBlockNumber",
          "type": "uint256"
        }
      ],
      "stateMutability": "nonpayable",
      "type": "constructor"
    },
    {
      "inputs": [
        {
          "internalType": "uint256",
          "name": "",
          "type": "uint256"
        }
      ],
      "name": "proposals",
      "outputs": [
        {
          "internalType": "bytes32",
          "name": "name",
          "type": "bytes32"
        },
        {
          "internalType": "uint256",
          "name": "voteCount",
          "type": "uint256"
        }
      ],
      "stateMutability": "view",
      "type": "function"
    },
    {
      "inputs": [],
      "name": "targetBlockNumber",
      "outputs": [
        {
          "internalType": "uint256",
          "name": "",
          "type": "uint256"
        }
      ],
      "stateMutability": "view",
      "type": "function"
    },
    {
      "inputs": [],
      "name": "tokenContract",
      "outputs": [
        {
          "internalType": "contract IMyToken",
          "name": "",
          "type": "address"
        }
      ],
      "stateMutability": "view",
      "type": "function"
    },
    {
      "inputs": [
        {
          "internalType": "uint256",
          "name": "proposal",
          "type": "uint256"
        },
        {
          "internalType": "uint256",
          "name": "amount",
          "type": "uint256"
        }
      ],
      "name": "vote",
      "outputs": [],
      "stateMutability": "nonpayable",
      "type": "function"
    },
    {
      "inputs": [
        {
          "internalType": "address",
          "name": "voter",
          "type": "address"
        }
      ],
      "name": "votingPower",
      "outputs": [
        {
          "internalType": "uint256",
          "name": "",
          "type": "uint256"
        }
      ],
      "stateMutability": "view",
      "type": "function"
    },
    {
      "inputs": [],
      "name": "winnerName",
      "outputs": [
        {
          "internalType": "bytes32",
          "name": "winnerName_",
          "type": "bytes32"
        }
      ],
      "stateMutability": "view",
      "type": "function"
    },
    {
      "inputs": [],
      "name": "winningProposal",
      "outputs": [
        {
          "internalType": "uint256",
          "name": "winningProposal_",
          "type": "uint256"
        }
      ],
      "stateMutability": "view",
      "type": "function"
    }
  ],
  "bytecode": "0x60806040523480156200001157600080fd5b5060405162000ea638038062000ea68339818101604052810190620000379190620003ca565b816000806101000a81548173ffffffffffffffffffffffffffffffffffffffff021916908373ffffffffffffffffffffffffffffffffffffffff160217905550806002819055504360025410620000c5576040517f08c379a0000000000000000000000000000000000000000000000000000000008152600401620000bc90620004cc565b60405180910390fd5b60005b83518110156200015c5760016040518060400160405280868481518110620000f557620000f4620004ee565b5b602002602001015181526020016000815250908060018154018082558091505060019003906000526020600020906002020160009091909190915060008201518160000155602082015181600101555050808062000153906200054c565b915050620000c8565b5050505062000599565b6000604051905090565b600080fd5b600080fd5b600080fd5b6000601f19601f8301169050919050565b7f4e487b7100000000000000000000000000000000000000000000000000000000600052604160045260246000fd5b620001ca826200017f565b810181811067ffffffffffffffff82111715620001ec57620001eb62000190565b5b80604052505050565b60006200020162000166565b90506200020f8282620001bf565b919050565b600067ffffffffffffffff82111562000232576200023162000190565b5b602082029050602081019050919050565b600080fd5b6000819050919050565b6200025d8162000248565b81146200026957600080fd5b50565b6000815190506200027d8162000252565b92915050565b60006200029a620002948462000214565b620001f5565b90508083825260208201905060208402830185811115620002c057620002bf62000243565b5b835b81811015620002ed5780620002d888826200026c565b845260208401935050602081019050620002c2565b5050509392505050565b600082601f8301126200030f576200030e6200017a565b5b81516200032184826020860162000283565b91505092915050565b600073ffffffffffffffffffffffffffffffffffffffff82169050919050565b600062000357826200032a565b9050919050565b62000369816200034a565b81146200037557600080fd5b50565b60008151905062000389816200035e565b92915050565b6000819050919050565b620003a4816200038f565b8114620003b057600080fd5b50565b600081519050620003c48162000399565b92915050565b600080600060608486031215620003e657620003e562000170565b5b600084015167ffffffffffffffff81111562000407576200040662000175565b5b6200041586828701620002f7565b9350506020620004288682870162000378565b92505060406200043b86828701620003b3565b9150509250925092565b600082825260208201905092915050565b7f54617267657420626c6f636b2073686f756c6420626520696e2074686520706160008201527f7374210000000000000000000000000000000000000000000000000000000000602082015250565b6000620004b460238362000445565b9150620004c18262000456565b604082019050919050565b60006020820190508181036000830152620004e781620004a5565b9050919050565b7f4e487b7100000000000000000000000000000000000000000000000000000000600052603260045260246000fd5b7f4e487b7100000000000000000000000000000000000000000000000000000000600052601160045260246000fd5b600062000559826200038f565b91507fffffffffffffffffffffffffffffffffffffffffffffffffffffffffffffffff82036200058e576200058d6200051d565b5b600182019050919050565b6108fd80620005a96000396000f3fe608060405234801561001057600080fd5b506004361061007d5760003560e01c8063609ff1bd1161005b578063609ff1bd146100ef578063b384abef1461010d578063c07473f614610129578063e2ba53f0146101595761007d565b8063013cf08b146100825780632a8cd29e146100b357806355a373d6146100d1575b600080fd5b61009c600480360381019061009791906104a3565b610177565b6040516100aa9291906104f8565b60405180910390f35b6100bb6101ab565b6040516100c89190610521565b60405180910390f35b6100d96101b1565b6040516100e691906105bb565b60405180910390f35b6100f76101d5565b6040516101049190610521565b60405180910390f35b610127600480360381019061012291906105d6565b61025d565b005b610143600480360381019061013e9190610654565b61033e565b6040516101509190610521565b60405180910390f35b610161610434565b60405161016e9190610681565b60405180910390f35b6001818154811061018757600080fd5b90600052602060002090600202016000915090508060000154908060010154905082565b60025481565b60008054906101000a900473ffffffffffffffffffffffffffffffffffffffff1681565b6000806000905060005b6001805490508110156102585781600182815481106102015761020061069c565b5b9060005260206000209060020201600101541115610245576001818154811061022d5761022c61069c565b5b90600052602060002090600202016001015491508092505b8080610250906106fa565b9150506101df565b505090565b806102673361033e565b10156102a8576040517f08c379a000000000000000000000000000000000000000000000000000000000815260040161029f906107c5565b60405180910390fd5b80600360003373ffffffffffffffffffffffffffffffffffffffff1673ffffffffffffffffffffffffffffffffffffffff16815260200190815260200160002060008282546102f791906107e5565b9250508190555080600183815481106103135761031261069c565b5b9060005260206000209060020201600101600082825461033391906107e5565b925050819055505050565b60008060008054906101000a900473ffffffffffffffffffffffffffffffffffffffff1673ffffffffffffffffffffffffffffffffffffffff16633a46b1a8846002546040518363ffffffff1660e01b815260040161039e929190610828565b602060405180830381865afa1580156103bb573d6000803e3d6000fd5b505050506040513d601f19601f820116820180604052508101906103df9190610866565b9050600360008473ffffffffffffffffffffffffffffffffffffffff1673ffffffffffffffffffffffffffffffffffffffff168152602001908152602001600020548161042c9190610893565b915050919050565b600060016104406101d5565b815481106104515761045061069c565b5b906000526020600020906002020160000154905090565b600080fd5b6000819050919050565b6104808161046d565b811461048b57600080fd5b50565b60008135905061049d81610477565b92915050565b6000602082840312156104b9576104b8610468565b5b60006104c78482850161048e565b91505092915050565b6000819050919050565b6104e3816104d0565b82525050565b6104f28161046d565b82525050565b600060408201905061050d60008301856104da565b61051a60208301846104e9565b9392505050565b600060208201905061053660008301846104e9565b92915050565b600073ffffffffffffffffffffffffffffffffffffffff82169050919050565b6000819050919050565b600061058161057c6105778461053c565b61055c565b61053c565b9050919050565b600061059382610566565b9050919050565b60006105a582610588565b9050919050565b6105b58161059a565b82525050565b60006020820190506105d060008301846105ac565b92915050565b600080604083850312156105ed576105ec610468565b5b60006105fb8582860161048e565b925050602061060c8582860161048e565b9150509250929050565b60006106218261053c565b9050919050565b61063181610616565b811461063c57600080fd5b50565b60008135905061064e81610628565b92915050565b60006020828403121561066a57610669610468565b5b60006106788482850161063f565b91505092915050565b600060208201905061069660008301846104da565b92915050565b7f4e487b7100000000000000000000000000000000000000000000000000000000600052603260045260246000fd5b7f4e487b7100000000000000000000000000000000000000000000000000000000600052601160045260246000fd5b60006107058261046d565b91507fffffffffffffffffffffffffffffffffffffffffffffffffffffffffffffffff8203610737576107366106cb565b5b600182019050919050565b600082825260208201905092915050565b7f546f6b656e697a656442616c6c6f743a20747279696e6720746f20766f74652060008201527f6d6f7265207468616e20616c6c6f776564000000000000000000000000000000602082015250565b60006107af603183610742565b91506107ba82610753565b604082019050919050565b600060208201905081810360008301526107de816107a2565b9050919050565b60006107f08261046d565b91506107fb8361046d565b9250828201905080821115610813576108126106cb565b5b92915050565b61082281610616565b82525050565b600060408201905061083d6000830185610819565b61084a60208301846104e9565b9392505050565b60008151905061086081610477565b92915050565b60006020828403121561087c5761087b610468565b5b600061088a84828501610851565b91505092915050565b600061089e8261046d565b91506108a98361046d565b92508282039050818111156108c1576108c06106cb565b5b9291505056fea26469706673582212200882e1663f626e4c6f95260c81b3878dc725666bcd2897e50ee0d6fcdfddf42664736f6c63430008130033",
  "linkReferences": {},
  "deployedLinkReferences": {}
}